:0400000035EF3AF0AE
:107460004CEC3BF00BEC3CF0FDD700EE3EF0100E88
:10747000EE6AE806FDE1000EF86E000130EF3AF02A
:10748000056E010E036E0550B809AEEC3AF0020E1F
:10749000036E0550B809AEEC3AF01200056E010E0D
:1074A000036E0550C009AEEC3AF0020E036E0550B3
:1074B000C009AEEC3AF01200818A010E036E3F0E55
:1074C000AEEC3AF0020E036E3F0EAEEC3AF0000E58
:1074D0004EEC3AF0120001500302F3CF05F0F4CF66
:1074E00006F001500402F350062602500302F35046
:1074F000062605C001F006C002F01200026E956873
:10750000000E936E0204D8B48190020E0218D8B413
:1075100081928186819400F0818800F083CF01F010
:10752000819801BEF9D78180818212003E0E0D6ED6
:10753000000E0E6EFC0E0F6E7F0E106E1BC011F053
:107540001CC012F057EC3EF00A0E156E3E0E166E81
:10755000000E176E040E51EC3CF01200046E035046
:107560007EEC3AF0000E936E0304D8B48190020EC4
:107570000318D8B481928196819400F0818800F03C
:1075800004C083FF000E956E00F081988180818297
:107590001200000E0C6E0AAE06D0096C0A1ED8B09E
:1075A0000A2A010E0C6E09C001F00AC002F0036A3B
:1075B0008E0E046E0CC005F099EC3CF001C009F091
:1075C00002C00AF003C00BF01200056E400E056009
:1075D0000CD0010E036E05504009AEEC3AF0020EDD
:1075E000036E400EAEEC3AF01200010E036E7F0EF9
:1075F000AEEC3AF0020E036E0550C00F4009AEEC3F
:107600003AF012000A500B10D8B418D0010E0C6ECC
:1076100004D0D8900A360B360C2A0BAEFAD70A5093
:10762000085C0B500958D8A004D00A50085E0B50D3
:10763000095AD8900B320A320C2EF1D708C008F044
:1076400009C009F01200000E066E000E056E035010
:107650000410D8B41CD0010E076E04D0D8900336A5
:107660000436072A04AEFAD7D890053606360350FA
:10767000015C04500258D8A005D00350015E0450AC
:10768000025A0580D89004320332072EEDD705C088
:1076900001F006C002F01200000E836E000E816E33
:1076A000000E956E000E936E92680F013869010E00
:1076B000C26E800EC16E110EC06E5CEC3AF0070E09
:1076C0000C6E000E0D6E7F0E0E6E000EA3EC3BF0E6
:1076D000000E4EEC3AF0090E156EF50E166E7F0E8A
:1076E000176E020E51EC3CF01200086E400E066060
:1076F00004D0000E0A6E010E03D0000E0A6E020EB8
:10770000096E09C00BF0085040EC3AF00650E5EC69
:107710003AF00B507EEC3AF0000E936E0B04D8B4A6
:107720008190020E0B18D8B481928196818400F06A
:10773000818800F007C083FF000E956E00F08198ED
:10774000818081821200126E12C013F0146A1CD064
:107750000DC015F0166A09D015C006F0000E076EB0
:10776000135075EC3BF0154A162A0E500F6E106A36
:1077700015500F5C1050800A116E1650800A115877
:10778000D8B0EAD7134A142A0C500F6E106A13505F
:107790000F5C1050800A116E1450800A1158D8A046
:1077A0001200D6D7106EE00E0D24016E026AFF0E95
:1077B0000222000E046E050E036E6BEC3AF001C05F
:1077C00011F002C012F00C50050DF3CF0CF0000EBA
:1077D000146E000E136E14BE06D014501BE1050E7D
:1077E000135CD8B01200F70E1124F66E7D0E122035
:1077F000F76E0800F5500E6E0F6A0CC006F00EC052
:1078000007F0105075EC3BF00C2A114A122A134A6B
:10781000142AE1D71200C282C2B2FED7000E1F6E38
:107820007A0E206E440E216E000E106E7F0E116EC9
:10783000430E126EC450050DF3CF09F0F4CF0AF0D9
:10784000C9EC3AF009C00DF00AC00EF00BC00FF001
:10785000F0EC3CF00DC01CF00EC01DF00FC01EF08F
:1078600063EC3DF01CC02BF01DC02CF01EC02DF0B1
:10787000DDEC3DF02BC03CF02CC03DF0030E3B6E28
:10788000080E3A6E770EE82EFED73A2EFCD73B2E26
:10789000FAD700F03CC01BF03DC01CF096EC3AF06B
:1078A0001200186E000E1A6E000E196E1BD01550C5
:1078B00019240C6E16C0F6FF17C0F7FFF86A050E04
:1078C000F76403D00800F55005D0F6CFE9FFF7CFF5
:1078D000EAFFEF500D6E1850D2EC3BF0164A172A13
:1078E000194A1A2A16C0F6FF17C0F7FFF86A050EE4
:1078F000F76403D00800F55005D0F6CFE9FFF7CFC5
:10790000EAFFEF500A0AD8B4120016C0F6FF17C0FB
:10791000F7FFF86A050EF76403D00800F55005D0AC
:10792000F6CFE9FFF7CFEAFFEF500009D8B4120015
:10793000BED70450D8B405D0015002100310D8A40B
:107940000CD0000E016E000E026E000E036E1200CF
:10795000042AD890033202320132000E0114066E5E
:10796000000E0214076EFE0E0314086E0650071078
:107970000810D8B40CD0ECD7042A010E0126000E52
:107980000222000E0322D890033202320132000E8E
:107990000114066E000E0214076EFF0E0314086E2B
:1079A000065007100810D8B406D0E6D70406D890C1
:1079B00001360236033602BE03D0020E0460F6D74B
:1079C00004A0029ED8900432045003120550D8A49B
:1079D000038E01C001F002C002F003C003F01200E8
:1079E0000FC013F0146A156A0E34133601E31480C5
:1079F00013501A6E1A50D8A407D0000E0D6E000E48
:107A00000E6E000E0F6E120012C013F0146A156A8B
:107A10001134133601E3148013501B6E1B50D8A48D
:107A200007D0000E0D6E000E0E6E000E0F6E1200CF
:107A3000000E176E000E186E000E196E1B50890F87
:107A40001A5E0FC01BF012501B1A800E1B160E8EF2
:107A5000FF0E0D16FF0E0E16000E0F16118EFF0EE6
:107A60001016FF0E1116000E1216180E166ED89074
:107A700017361836193610500D5C11500E5812502A
:107A80000F58D8A007D010500D5E11500E5A12504A
:107A90000F5A1780D8900D360E360F36162EE7D7B0
:107AA00017C001F018C002F019C003F01AC004F0AA
:107AB0001BC005F099EC3CF001C00DF002C00EF0C7
:107AC00003C00FF012001EC022F0236A246A1D3486
:107AD000223601E323802250256E2550D8A407D0FA
:107AE000000E1C6E000E1D6E000E1E6E120021C0D8
:107AF00022F0236A246A2034223601E323802250B4
:107B00002A6E2A50D8A407D0000E1C6E000E1D6EDF
:107B1000000E1E6E12002A507B0F25261EC02AF072
:107B200021502A1A800E2A161D8E208EFF0E1F1637
:107B3000FF0E2016000E2116000E266E000E276E78
:107B4000000E286E070E296E1CA006D01F50262698
:107B50002050272221502822D8901E321D321C325C
:107B6000D8901F3620362136292EEED7090E296EE1
:107B70001CA006D01F502626205027222150282244
:107B8000D8901E321D321C32D8902832273226322D
:107B9000292EEED726C001F027C002F028C003F03E
:107BA00025C004F02AC005F099EC3CF001C01CF09F
:107BB00002C01DF003C01EF012002DC02FF0306A6D
:107BC000316A2C342F3601E330802F50396E395012
:107BD000D8A409D0000E2B6E000E2C6E000E2D6E58
:107BE000000E2E6E1200170E2F6E2BC030F02CC020
:107BF00031F02DC032F02F28336E04D0D8903232BD
:107C000031323032332EFAD73050346E2C8EFF0E94
:107C10002B16FF0E2C16000E2D162B50356E2C50E9
:107C2000366E2D50376E386A8E0E395E39AE16D0EC
:107C30003950800A8F0FD8B009D0000E2B6E000E7D
:107C40002C6E000E2D6E000E2E6E1200D890383263
:107C5000373236323532393EF9D715D0170E3964FE
:107C60000FD0000E2B6E000E2C6E000E2D6E000E2F
:107C70002E6E1200D89035363636373638363906FD
:107C80003950D8A4F7D73450D8B408D0381E371E8E
:107C9000361E356C000E36223722382235C02BF0C6
:107CA00036C02CF037C02DF038C02EF01200110E67
:107CB000146E000E156E8CD0250E1A18D8B409D08B
:107CC0000DC0D9FF0EC0DAFF1AC0DFFF0D4A0E2A21
:107CD0007FD0000E166E0FC0F6FF10C0F7FF0F4AE0
:107CE000102A0800F5CF1AF01A50000AD8B47CD038
:107CF000640AD8B403D00D0AD8A46AD014C0D9FF3E
:107D000015C0DAFFDECF18F0DDCF19F0020E142611
:107D1000000E152219AE06D0030E1612186C191E8D
:107D2000D8B0192A010E1A6E050E1A18D8B412D03E
:107D30001A50020DEB0EF324F66E7F0EF420F76E50
:107D40000900F550185C0900F5501958D8A002D068
:107D50001A2AEAD716C013F0030E1316D8B408D0A7
:107D60000DC0D9FF0EC0DAFF2D0EDF6E0D4A0E2AB0
:107D70001AC017F029D01750020DEB0EF324F66E3F
:107D80007F0EF420F76E0900F5CF03F00A00F5CF5F
:107D900004F018C001F019C002F023EC3BF001C060
:107DA00008F002C009F0000E0B6E0A0E0A6E02EC1B
:107DB0003BF00850300F1A6E0DC0D9FF0EC0DAFF2D
:107DC0001AC0DFFF0D4A0E2A17061728D8A4D3D7EA
:107DD0000FC0F6FF10C0F7FF0F4A102A0800F5CFBA
:107DE0001AF01A50D8A468D70DC0D9FF0EC0DAFF18
:107DF000000EDF6E120000000000000000005F00B7
:107E0000000007000700147F147F14242A7F2A1221
:107E10002313086462364955225000050300000010
:107E20001C2241000041221C00082A1C2A080808C4
:107E30003E080800503000000808080808003030EC
:107E4000000020100804023E5149453E00427F4098
:107E50000042615149462141454B311814127F10AF
:107E600027454545393C4A494930017109050336E2
:107E700049494936064949291E0036360000005650
:107E80003600000008142241141414141441221462
:107E900008000201510906324979413E7E11111153
:107EA0007E7F494949363E414141227F4141221C62
:107EB0007F494949417F090901013E414151327FD2
:107EC0000808087F00417F41002040413F017F08B2
:107ED0001422417F404040407F0204027F7F04081B
:107EE000107F3E4141413E7F090909063E41512133
:107EF0005E7F09192946464949493101017F01013F
:107F00003F4040403F1F2040201F7F2018207F63BC
:107F100014081463030478040361514945430000C5
:107F20007F4141020408102041417F00000402010A
:107F300002044040404040000102040020545454D8
:107F4000787F484444383844444420384444487F87
:107F50003854545418087E090102081454543C7FC4
:107F60000804047800447D40002040443D00007F28
:107F700010284400417F40007C041804787C0804E9
:107F8000047838444444387C141414080814141831
:107F90007C7C080404084854545420043F44402086
:107FA0003C4040207C1C2040201C3C4030403C4455
:107FB000281028440C5050503C4464544C44000851
:107FC00036410000007F0000004136080008082A02
:107FD0001C08081C2A08080800AA000800383838BD
:107FE000000000000000000000000001000A006422
:107FF00000E803102756414C4F523A002564000018
:020000040030CA
:0E000000FF021900FFA580FF0FC00FE00F40A8
:00000001FF
